:100000000C943D000C945A000C945A000C945A0025
:100010000C945A000C945A000C945A000C945A00F8
:100020000C945A000C945A000C945A000C94BE0084
:100030000C945A000C945A000C945A000C945A00D8
:100040000C945A000C945A000C945A000C945A00C8
:100050000C945A000C945A000C945A000C945A00B8
:100060000C945A000C945A006B006D0071007500DE
:1000700079007B007D008100850011241FBECFEF39
:10008000D8E0DEBFCDBF11E0A0E0B1E0E4E3FAE0EC
:1000900002C005900D92A431B107D9F721E0A4E187
:1000A000B1E001C01D92AC31B207E1F70E94D4016A
:1000B0000C9418050C94000025B1207E25B92BB1B5
:1000C0002F732BB901978930910520F58C5C9F4FD8
:1000D000FC010C94280280E811C080EC8BB986E109
:1000E00017C080EC8BB983E113C080E88BB989E13C
:1000F0000FC080E40BC080E405C080EC8BB981E0C8
:1001000007C080EC8BB98FE103C080EC8BB98BE129
:1001100085B908951BB815B8089527B1276027B988
:1001200028B1287F28B98130910531F018F0029765
:1001300029F00895409A03C0419A01C0429A2FEFD6
:1001400083ED90E3215080409040E1F700C0000033
:10015000089510928000E1E8F0E0108280818D60C7
:10016000808388E09DE39093890080938800EFE688
:10017000F0E0808182608083789408951F920F92CE
:100180000FB60F9211242F933F934F935F936F936A
:100190007F938F939F93AF93BF93EF93FF93809140
:1001A0001A0190911B01019690931B0180931A01F3
:1001B00080911801909119010196909319018093F3
:1001C000180180911A0190911B01892BE1F0809117
:1001D0001601909117010297B1F08091000190E013
:1001E0000E945C0080910001815080930001809109
:1001F0000001811103C089E08093000110921B016E
:1002000010921A010CC0809116019091170102976B
:1002100031F485B1807E85B98BB18F738BB98091B4
:10022000160190911701029759F48091180190914D
:100230001901039750F110921701109216011BC07B
:1002400080911801909119010997F8F08091160199
:1002500090911701892B19F481E090E008C08091FA
:10026000160190911701019731F482E090E090938C
:1002700017018093160180911601909117010E9439
:100280008D001092190110921801FF91EF91BF910A
:10029000AF919F918F917F916F915F914F913F911E
:1002A0002F910F900FBE0F901F90189580E48093B0
:1002B0007C0087E880937A00089590917C00907F7D
:1002C0008F70892B80937C0080917A00806480936A
:1002D0007A0080917A0086FDFCCF80917800909121
:1002E000790008953D9A08958037910510F4459856
:1002F0000895459A08959B01AC0160E472E48FE093
:1003000090E00E940602215031093093C5002093ED
:10031000C40088E08093C10086E08093C200089505
:100320009091C00095FFFCCF8093C6000895CF93B5
:10033000DF93EC018991882319F00E949001FACF94
:10034000DF91CF9108950F931F93CF93DF93CDB794
:10035000DEB72A970FB6F894DEBF0FBECDBF9F93CE
:100360008F9381E091E09F938F938E010F5F1F4FDA
:100370001F930F930E942E02C8010E94970184E0F0
:1003800091E00E9497010F900F900F900F900F90A7
:100390000F902A960FB6F894DEBF0FBECDBFDF9147
:1003A000CF911F910F9108958AB18FEF8AB994B1BF
:1003B00084B987B18F6287B90E9456010E94720189
:1003C00060E072EC81E090E00E947B018091160178
:1003D000909117010E948D000E94A90084E00E9464
:1003E0005D01EC0187E091E00E949701CE010E943F
:1003F000A301CE010E9474012FEF89E698E12150FC
:1004000080409040E1F700C00000E8CFA1E21A2E42
:10041000AA1BBB1BFD010DC0AA1FBB1FEE1FFF1FA8
:10042000A217B307E407F50720F0A21BB30BE40BF8
:10043000F50B661F771F881F991F1A9469F760953F
:100440007095809590959B01AC01BD01CF010895F9
:10045000EE0FFF1F0590F491E02D0994AEE0B0E09F
:10046000E4E3F2E00C94EF040D891E8986E08C83AE
:100470001A8309838FEF9FE79E838D83AE01475ECA
:100480005F4F6F89788DCE0101960E945002EF81F7
:10049000F885E00FF11F10822E96E4E00C940B0516
:1004A000ABE0B0E0E6E5F2E00C94E1046C017B0126
:1004B0008A01FC0117821682838181FFCCC1CE01A3
:1004C00001963C01F6019381F70193FD859193FF1D
:1004D00081917F01882309F4BAC1853239F493FDF3
:1004E000859193FF81917F01853229F4B60190E0D7
:1004F0000E944704E7CF912C212C312CFFE1F3150A
:10050000D8F08B3279F038F4803279F08332A1F46C
:10051000232D20611DC08D3261F0803369F4232DBD
:10052000216016C0832D8260382EE32DE4603E2EBC
:100530002AC0F32DF8601DC037FC2DC020ED280F18
:100540002A3040F08E32B9F436FC81C1232D20646C
:10055000322E19C036FE06C08AE0989E200D112466
:10056000922E11C0EAE02E9E200D1124222EF32D92
:10057000F0623F2E08C08C3621F4832D8068382E1F
:1005800002C0883641F4F70193FD859193FF819174
:100590007F018111B3CF982F9F7D9554933028F41C
:1005A0000C5F1F4F9FE399830DC0833631F0833773
:1005B00071F0833509F059C021C0F8018081898329
:1005C0000E5F1F4F88248394912C530113C0280180
:1005D000F2E04F0E511CF801A080B18036FE03C03E
:1005E000692D70E002C06FEF7FEFC5010E943C04EF
:1005F0004C018201F32DFF773F2E16C0280122E027
:10060000420E511CF801A080B18036FE03C0692D56
:1006100070E002C06FEF7FEFC5010E9431044C0112
:10062000F32DF0683F2E820133FC1BC0822D90E039
:1006300088169906B0F4B60180E290E00E94470463
:100640002A94F4CFF50137FC859137FE81915F0143
:10065000B60190E00E94470421102A9421E0821AFA
:1006600091088114910471F7E8C0843611F089363D
:1006700041F5F80137FE07C0608171818281938165
:100680000C5F1F4F08C060817181072E000C880B22
:10069000990B0E5F1F4FF32DFF763F2E97FF09C07A
:1006A00090958095709561957F4F8F4F9F4FF06823
:1006B0003F2E2AE030E0A3010E948304882E861892
:1006C00045C0853731F4232D2F7EB22E2AE030E04D
:1006D00025C0932D997FB92E8F36C1F018F4883537
:1006E00079F0B5C0803719F0883721F0B0C0E92F14
:1006F000E061BE2EB4FE0DC0FB2DF460BF2E09C01C
:1007000034FE0AC0292F2660B22E06C028E030E051
:1007100005C020E130E002C020E132E0F801B7FE80
:1007200007C060817181828193810C5F1F4F06C079
:100730006081718180E090E00E5F1F4FA3010E94F5
:100740008304882E8618FB2DFF773F2E36FE0DC0C2
:10075000232D2E7FA22E891458F434FE0BC032FCB8
:1007600009C0832D8E7EA82E05C0B82CA32C03C0F3
:10077000B82C01C0B92CA4FE0FC0FE01E80DF11D7C
:100780008081803321F49A2D997EA92E09C0A2FE82
:1007900006C0B394B39404C08A2D867809F0B3944C
:1007A000A3FC11C0A0FE06C0B21488F4280C922C41
:1007B0009B180EC0B21460F4B60180E290E00E9473
:1007C0004704B394F7CFB21418F42B1802C0982C36
:1007D000212CA4FE10C0B60180E390E00E944704E3
:1007E000A2FE17C0A1FC03C088E790E002C088E524
:1007F00090E0B6010CC08A2D867859F0A1FE02C0A7
:100800008BE201C080E2A7FC8DE2B60190E00E947D
:100810004704891438F4B60180E390E00E9447044D
:100820009A94F7CF8A94F301E80DF11D8081B60107
:1008300090E00E9447048110F5CF222009F442CEB7
:10084000B60180E290E00E9447042A94F6CFF601B8
:100850008681978102C08FEF9FEF2B96E2E10C9487
:10086000FD04FC010590615070400110D8F780959F
:1008700090958E0F9F1F0895FC016150704001906C
:100880000110D8F7809590958E0F9F1F08950F93B4
:100890001F93CF93DF93FB01238121FD03C08FEFD3
:1008A0009FEF2CC022FF16C04681578124813581DD
:1008B0004217530744F4A081B1819D012F5F3F4F40
:1008C000318320838C93268137812F5F3F4F37837D
:1008D000268314C08B01EC01FB010084F185E02D1F
:1008E0000995892BE1F6D80116968D919C91179761
:1008F000019617969C938E931697CE01DF91CF9118
:100900001F910F910895FA01AA27283051F1203143
:1009100081F1E8946F936E7F6E5F7F4F8F4F9F4F93
:10092000AF4FB1E03ED0B4E03CD0670F781F891FD5
:100930009A1FA11D680F791F8A1F911DA11D6A0FA3
:10094000711D811D911DA11D20D009F468943F9156
:100950002AE0269F11243019305D3193DEF6CF0155
:100960000895462F4770405D4193B3E00FD0C9F71B
:10097000F6CF462F4F70405D4A3318F0495D31FD88
:100980004052419302D0A9F7EACFB4E0A6959795DB
:10099000879577956795BA95C9F7009761057105B1
:1009A00008959B01AC010A2E0694579547953795FB
:1009B0002795BA95C9F7620F731F841F951FA01D55
:1009C00008952F923F924F925F926F927F928F92F3
:1009D0009F92AF92BF92CF92DF92EF92FF920F93CE
:1009E0001F93CF93DF93CDB7DEB7CA1BDB0B0FB6D8
:1009F000F894DEBF0FBECDBF09942A883988488895
:100A00005F846E847D848C849B84AA84B984C8842A
:100A1000DF80EE80FD800C811B81AA81B981CE0F21
:100A2000D11D0FB6F894DEBF0FBECDBFED01089506
:040A3000F894FFCF68
:100A3400092575000D0A004144432076616C7565F3
:040A44003A20000054
:00000001FF
