:100000000C943E000C9450000C9450000C94500042
:100010000C9450000C9450000C9450000C94500020
:100020000C9450000C9450000C9450000C94AE00B2
:100030000C9450000C9450000C9450000C94500000
:100040000C9450000C9450000C9450000C945000F0
:100050000C9450000C9450000C9450000C945000E0
:100060000C9450000C9450006000640066006A001C
:100070006E007200740076007A007E0011241FBEAC
:10008000CFEFD8E0DEBFCDBF21E0A0E0B1E001C0FE
:100090001D92A730B207E1F70E942F010C946E0168
:1000A0000C9400002BB12F732BB925B1207E25B9FC
:1000B0008A30910540F5FC01EC5CFF4F0C94540133
:1000C00080EC8BB98FE01DC080E811C080EC8BB94B
:1000D00086E117C080EC8BB983E113C080E88BB94F
:1000E00089E10FC080E40BC080E405C080EC8BB9CF
:1000F00081E007C080EC8BB98FE103C080EC8BB945
:100100008BE185B908951BB815B8089527B127600C
:1001100027B928B1287F28B98130910531F018F02E
:10012000029729F00895409A0895419A0895429AB5
:10013000089510928000E1E8F0E0108280818D60E7
:10014000808388E09DE39093890080938800EFE6A8
:10015000F0E0808182608083789408951F920F92EE
:100160000FB60F9211242F933F934F935F936F938A
:100170007F938F939F93AF93BF93EF93FF93809160
:100180000501909106010196909306018093050167
:100190008091030190910401019690930401809352
:1001A000030198B188E0892788B980910501909171
:1001B0000601892B99F08091020190E00E94520083
:1001C0008091020190E001966AE070E00E94400197
:1001D00080930201109206011092050180910301A3
:1001E00090910401099750F18091000190910101D3
:1001F000892B19F481E090E008C080910001909172
:100200000101019739F482E090E09093010180931D
:1002100000010AC08091000190910101029721F430
:100220001092010110920001809100019091010152
:100230000E9486001092040110920301FF91EF9139
:10024000BF91AF919F918F917F916F915F914F91EE
:100250003F912F910F900FBE0F901F9018958AB16C
:100260008FEF8AB994B184B987B18F6087B98091D3
:100270000001909101010E9486000E949900FFCF29
:1002800097FB072E16F4009407D077FD09D00E9443
:100290005A0107FC05D03EF4909581959F4F089533
:1002A000709561957F4F0895EE0FFF1F0590F491B3
:1002B000E02D0994AA1BBB1B51E107C0AA1FBB1F5D
:1002C000A617B70710F0A61BB70B881F991F5A95E2
:1002D000A9F780959095BC01CD010895F894FFCFC2
:00000001FF
