:100000000C9434000C943E000C943E000C943E0082
:100010000C943E000C943E000C943E000C943E0068
:100020000C943E000C943E000C943E000C943E0058
:100030000C943E000C943E000C943E000C943E0048
:100040000C943E000C943E000C943E000C943E0038
:100050000C943E000C943E000C943E000C943E0028
:100060000C943E000C943E0011241FBECFEFD8E04C
:10007000DEBFCDBF0E9454000C945B000C940000C6
:100080008130910541F018F0029749F008955F9A88
:100090008BB18F7907C05E9A8BB18F7503C05D9A63
:1000A0008BB18F738BB908958AB1806E8AB95F9ACC
:0A00B00080E090E00895F894FFCF7F
:00000001FF
