:100000000C943D000C945A000C945A000C945A0025
:100010000C945A000C945A000C945A000C945A00F8
:100020000C945A000C945A000C945A000C94BE0084
:100030000C945A000C945A000C945A000C945A00D8
:100040000C945A000C945A000C945A000C945A00C8
:100050000C945A000C945A000C945A000C945A00B8
:100060000C945A000C945A006B006D0071007500DE
:1000700079007B007D008100850011241FBECFEF39
:10008000D8E0DEBFCDBF11E0A0E0B1E0E8EFF2E0E4
:1000900002C005900D92A230B107D9F721E0A2E08D
:1000A000B1E001C01D92AA30B207E1F70E946301DE
:1000B0000C947A010C94000025B1207E25B92BB157
:1000C0002F732BB901978930910520F58C5C9F4FD8
:1000D000FC010C94740180E811C080EC8BB986E1BE
:1000E00017C080EC8BB983E113C080E88BB989E13C
:1000F0000FC080E40BC080E405C080EC8BB981E0C8
:1001000007C080EC8BB98FE103C080EC8BB98BE129
:1001100085B908951BB815B8089527B1276027B988
:1001200028B1287F28B98130910531F018F0029765
:1001300029F00895409A03C0419A01C0429A2FEFD6
:1001400083ED90E3215080409040E1F700C0000033
:10015000089510928000E1E8F0E0108280818D60C7
:10016000808388E09DE39093890080938800EFE688
:10017000F0E0808182608083789408951F920F92CE
:100180000FB60F9211242F933F934F935F936F936A
:100190007F938F939F93AF93BF93CF93EF93FF93EF
:1001A0008091080190910901019690930901809333
:1001B0000801809106019091070101969093070133
:1001C0008093060188B1C8E08C2788B98091080126
:1001D00090910901892B19F18091040190910501F9
:1001E0000297E9F08091000190E00E945C0088B1E4
:1001F000C827C8B980910001815080930001809187
:100200000001811107C089E080930001109209016B
:100210001092080110920901109208010CC08091FF
:10022000040190910501029731F485B1807E85B972
:100230008BB18F738BB98091040190910501029766
:1002400059F48091060190910701039750F11092A3
:100250000501109204011BC08091060190910701D5
:100260000997F8F08091040190910501892B19F408
:1002700081E090E008C08091040190910501019710
:1002800031F482E090E09093050180930401809125
:100290000401909105010E948D00109207011092B7
:1002A0000601FF91EF91CF91BF91AF919F918F91F7
:1002B0007F916F915F914F913F912F910F900FBE62
:1002C0000F901F9018958AB18FEF8AB994B184B9B5
:1002D00087B18F6087B980910401909105010E94D8
:1002E0008D000E94A900FFCFEE0FFF1F0590F49133
:0802F000E02D0994F894FFCF02
:0202F8000900FB
:00000001FF
